:100000000C9462000C948A000C948A000C948A0070
:100010000C948A000C948A000C948A000C948A0038
:100020000C948A000C948A000C948A000C948A0028
:100030000C948A000C948A000C948A000C948A0018
:100040000C94F4070C948A000C94750A0C948A00A2
:100050000C948A000C948A000C948A000C948A00F8
:100060000C948A000C948A004441544120202020A2
:1000700042494E00000024272A000025282B0000BA
:1000800023262904040404040404040202020202D4
:10009000020303030303030102040810204080014C
:1000A00002040810200102040810200000000700CC
:1000B0000201000003040600000000000000000030
:1000C000EC054C0611241FBECFEFD4E0DEBFCDBF40
:1000D00011E0A0E0B1E0E6E5F6E102C005900D9286
:1000E000A239B107D9F714E0A2E9B1E001C01D922D
:1000F000A634B107E1F710E0C4ECD0E004C02297C9
:10010000FE010E94250BC03CD107C9F70E9447069B
:100110000C94290B0C940000EF92FF920F931F9305
:10012000FB0190939F0180939E017093A1016093C6
:10013000A00121E040E050E060E070E009958823F4
:1001400009F068C0E0919E01F0919F01E254FE4FDA
:10015000E084F18402851385EE5BF140A091A0015B
:10016000B091A10121E0B801A701CF01FD010995DE
:10017000882309F04FC0E0919E01F0919F01838593
:1001800094858050924009F045C085858093920106
:10019000109293012685378540E050E02E0D3F1DDB
:1001A000401F511F808990E066897789DC01A69FF6
:1001B000C001A79F900DB69F900D1124A0E0B0E064
:1001C000280F391F4A1F5B1F209396013093970118
:1001D00040939801509399018189928975E0880F25
:1001E000991F7A95E1F7892F992786959093950124
:1001F00080939401A0E0B0E0280F391F4A1F5B1FD5
:1002000020939A0130939B0140939C0150939D0150
:1002100081E001C080E01F910F91FF90EF90089561
:10022000AF92BF92CF92DF92EF92FF920F931F9304
:10023000CF93DF935C016B01EE24FF2400E010E01C
:100240003EC0A80160E070E0809196019091970116
:10025000A0919801B0919901480F591F6A1F7B1F07
:10026000E091A001F091A10121E080919E01909187
:100270009F010995882309F5C0E0D0E0E0919E0137
:10028000F0919F01EC0FFD1F8081882301F1853ED5
:1002900079F08385887161F4A601B701CF01F5017A
:1002A0000995882311F0B70114C00894E11CF11CD2
:1002B000A09682E0C030D80709F70F5F1F4F8091EA
:1002C0009401909195010817190708F4BACF6FEFC0
:1002D0007FEFCB01DF91CF911F910F91FF90EF90B6
:1002E000DF90CF90BF90AF9008950F931F93CF935F
:1002F000DF93FC018A01828D938D029720919201F8
:1003000030919301AC01429FC001439F900D529FD9
:10031000900D1124A0E0B0E020919A0130919B0152
:1003200040919C0150919D01820F931FA41FB51F06
:10033000EB0188839983AA83BB83848D958DA68DD9
:10034000B78DF80180839183A283B383DF91CF912E
:100350001F910F910895EF92FF920F931F93DF93D8
:10036000CF93CDB7DEB72A970FB6F894DEBF0FBE96
:10037000CDBF8B017A019A878987BE016F5F7F4F5E
:1003800089EE91E00E94100129813A814B815C81C4
:10039000F80120833183428353832D813E814F8135
:1003A0005885F701208331834283538320E08F5F98
:1003B0009F4F09F021E0822F2A960FB6F894DEBFF6
:1003C0000FBECDBFCF91DF911F910F91FF90EF90A6
:1003D00008950F931F93CF93DF938C01EA016885F3
:1003E00079854BE050E00E94B20A892B11F080E041
:1003F0002BC0F801828D938D02972091920130914C
:100400009301AC01429FC001439F900D529F900DFC
:100410001124A0E0B0E020919A0130919B0140911D
:100420009C0150919D01820F931FA41FB51F8883CB
:100430009983AA83BB83848D958DA68DB78D8C837C
:100440009D83AE83BF8381E0DF91CF911F910F9198
:100450000895DF92EF92FF920F931F937A018B0121
:10046000D22E782F705CA0E0B0E8E8E0F0E0472FF3
:1004700050E061E029E08A2F90E036E0969587957C
:100480003A95E1F7382F31708B2F90E08423952334
:10049000892B09F03627AA0F3111A227B69531977B
:1004A00051F7AF77B0E8E8E0F0E0412F50E061E0CD
:1004B00029E08A2F90E036E0969587953A95E1F706
:1004C000382F31708B2F90E084239523892B09F0EE
:1004D0003627AA0F3111A227B695319751F7AF777A
:1004E000B0E8E8E0F0E0402F50E061E029E08A2F3A
:1004F00090E036E0969587953A95E1F7382F317080
:100500008B2F90E084239523892B09F03627AA0F9F
:100510003111A227B695319751F7AF77B0E8E8E0EF
:10052000F0E04F2D50E061E029E08A2F90E036E0C6
:10053000969587953A95E1F7382F31708B2F90E09B
:1005400084239523892B09F03627AA0F3111A2277E
:10055000B695319751F7AF77B0E8E8E0F0E04E2D6F
:1005600050E061E029E08A2F90E036E0969587958B
:100570003A95E1F7382F31708B2F90E08423952343
:10058000892B09F03627AA0F3111A227B69531978A
:1005900051F78A2F880F8160A0E0BFEF9FEF2A9864
:1005A0007EBD0DB407FEFDCF2EB51EBD0DB407FEFA
:1005B000FDCF2EB50EBD0DB407FEFDCF2EB5FEBC92
:1005C0000DB407FEFDCF2EB5EEBC0DB407FEFDCF7A
:1005D0002EB58EBD0DB407FEFDCF2EB5E0E0F0E0E8
:1005E0009EBD0DB407FEFDCF3EB537FF05C0319669
:1005F00020E1E030F207A1F7DD2081F033FF16C0E3
:100600002A9ABEBD0DB407FEFDCF2EB5AF5FA53053
:1006100031F604C00DB407FEFDCF8EB5832F90E0F8
:100620001F910F91FF90EF90DF9008952A9A8FEF1E
:100630008EBDF0CFCF93DF9383E090E09093A30142
:100640008093A20185B1846385B984B18C6284B939
:10065000249883E58CBD8DB58EB52A9A80E09FEFF6
:100660009EBD0DB407FEFDCF2EB58F5F8A30C1F75A
:1006700021E040E050E060E070E080E00E9429026C
:10068000813009F05EC0CFEFDFEF20E040E050E0C6
:1006900060E070E08AE30E942902823008F455C0CD
:1006A00021978FEFCF3FD80709F44FC0EECF20E05E
:1006B00030E040E050E01EBC0DB407FEFDCF8EB52B
:1006C000582F4EBD0DB407FEFDCF8EB5482F3EBD51
:1006D0000DB407FEFDCF8EB5382F2EBD0DB407FE2D
:1006E000FDCF8EB5282F42FD08C02A9A8FEF8EBD10
:1006F0000DB407FEFDCF8EB524C0CFEFDFEF21E0B4
:1007000040E050E060E070E481E00E94290221971F
:10071000882319F0209799F714C0CD2B91F021E090
:1007200040E052E060E070E080E10E94290288230E
:1007300041F482E090E09093A3018093A20180E0D5
:1007400001C083E0DF91CF910895CD2BB1F2AFCFFF
:10075000BF92CF92DF92EF92FF920F931F93CF93AE
:10076000DF93EC017A018B01B22EDD24CC24CA94F4
:1007700050C0B801A701E9E0440F551F661F771F5D
:10078000EA95D1F720E081E10E942902882389F4CB
:100790002FEF3FE0CEBC0DB407FEFDCF8EB58E3FF0
:1007A00031F02115310529F021503040F3CF232BB2
:1007B00049F42A9A83E090E09093A3018093A201E8
:1007C00081E02BC0FE0120E030E0CEBC0DB407FE7E
:1007D000FDCF8EB581932F5F3F4F82E020303807E9
:1007E000A1F7C050DE4FCEBC0DB407FEFDCF8EB5D5
:1007F000CEBC0DB407FEFDCF8EB52A9ACEBC0DB48B
:1008000007FEFDCF8EB5D3940894E11CF11C011DA9
:10081000111DDB1408F4ADCF80E0DF91CF911F9163
:100820000F91FF90EF90DF90CF90BF9008953F928F
:100830004F925F926F927F928F929F92AF92BF92F0
:10084000CF92DF92EF92FF920F931F93CF93DF939C
:10085000EC017A018B01422E8824BEEF3B2E5524F9
:100860005A9468C020E0B601A50188E10E942902DF
:10087000882309F043C03EBC0DB407FEFDCF8EB502
:10088000FE0120E030E081918EBD0DB407FEFDCF6A
:100890008EB52F5F3F4F82E020303807A1F71EBC96
:1008A0000DB407FEFDCF8EB51EBC0DB407FEFDCF07
:1008B0008EB55EBC0DB407FEFDCF9EB5892F8F703F
:1008C000853059F02A9A5EBC0DB407FEFDCF8EB577
:1008D000939485E0981631F614C02FEF3FEF5EBC7D
:1008E0000DB407FEFDCF8EB5882331F421153105F7
:1008F00029F021503040F3CF232B11F42A9A11C054
:10090000E3012A9A5EBC0DB407FEFDCF8EB50894B4
:10091000E11CF11C011D111D84E0891550F493FDAB
:1009200006C083E090E09093A3018093A20181E050
:1009300014C08394841480F457016801A9E0AA0CC0
:10094000BB1CCC1CDD1CAA95D1F79924612CF2E0CC
:100950007F2E6C0E7D1E86CF80E0DF91CF911F91A0
:100960000F91FF90EF90DF90CF90BF90AF909F904E
:100970008F907F906F905F904F903F900895AF92CF
:10098000BF92CF92DF92EF92FF920F931F93CF937C
:10099000DF935C016A017B01E90121978E0183E00D
:1009A000000F111F8A95E1F7219614C0D501ED9132
:1009B000FC91C701B601002E04C0969587957795E6
:1009C00067950A94D2F70190F081E02DC501099551
:1009D000085010402197D7FFE9CFDF91CF911F91A9
:1009E0000F91FF90EF90DF90CF90BF90AF90089560
:1009F0000F931F93CF93DF93EC01FC01EC5FFD4F4E
:100A0000C85FDD4F40815181628173818881998106
:100A1000AA81BB81C850D240480F591F6A1F7B1F53
:100A200021E0CE0102960E941704882331F060E095
:100A300071E088EB93E00E94B4068E010C5F1D4FBD
:100A4000F80180819181A281B3810196A11DB11D20
:100A500080839183A283B383CE5FDD4F1982188296
:100A60006EE071E088EB93E00E947506F80140812A
:100A700051816281738188EB93E00E9467076FE187
:100A800071E088EB93E00E9475062E9648815981AB
:100A90006A817B8188EB93E00E946B07DF91CF91A5
:100AA0001F910F9108959C01DC01AE5FBD4F8D91A8
:100AB0009C911197F901E80FF91F628301968D93BC
:100AC0009C938050924019F4C9010E94F804089543
:100AD000EF92FF920F931F93CF93DF93EC018B0163
:100AE0000CC064E271E088EB93E00E94B40664EF0E
:100AF00071E080E090E00E945F080E941A03882362
:100B000081F768EA73E0CE0102960E948C00882388
:100B100019F469E371E011C03CE0E32E32E0F32EFA
:100B2000EC0EFD1EBE01685F7D4FA701C8010E944B
:100B3000AB01882341F46BE471E088EB93E00E9401
:100B4000B40680E041C08E01005F1D4FF701808137
:100B50009181A281B38129E0B695A7959795879554
:100B60002A95D1F7F80180839183A283B383CE5F66
:100B7000DD4F19921992188219821A821B826AE536
:100B800071E088EB93E00E947506F7014081518186
:100B90006281738188EB93E00E94670769E671E0E8
:100BA00088EB93E00E947506F801408151816281D3
:100BB000738188EB93E00E94670762E771E088EB3E
:100BC00093E00E94B40681E0DF91CF911F910F91D5
:100BD000FF90EF90089508958EE791E09093A5011E
:100BE0008093A4010895CF93DF9340E855E260E03D
:100BF00070E088EB93E00E94600668E670E084EAAB
:100C000091E00E946805C0E0D0E00E945108AB016D
:100C1000BC0184EA91E00E94670760E871E084EA21
:100C200091E00E94750680E00E94D408BC0184EA2D
:100C300091E00E94BC0760E871E084EA91E00E94C4
:100C4000750681E00E94D408BC0184EA91E00E940C
:100C5000C40762E370E080E090E00E945F082196A4
:100C600081E0C43FD80789F662E871E084EA91E048
:100C70000E94B40684EA91E00E94F80466E871E0FC
:100C800088EB93E00E94B406DF91CF9108950E9413
:100C900097080E94F305FFCF8FE891E09093B90386
:100CA0008093B8030895862F0E94340A08950E9405
:100CB0006C0A08950E944D0A08950E943C0A089506
:100CC000CB01BA010E94FB090895DC01ED91FC9172
:100CD0000190F081E02D09950895DC01ED91FC91E2
:100CE0000190F081E02D099508950F931F93CF9304
:100CF000DF938C01EB0109C02196D801ED91FC91A5
:100D00000190F081E02DC801099568816623A1F763
:100D1000DF91CF911F910F9108950F931F938C0135
:100D2000DC01ED91FC910190F081E02D6DE00995E1
:100D3000D801ED91FC910190F081E02D6AE0C801AD
:100D400009951F910F9108950F931F938C01DC015A
:100D5000ED91FC910190F081E02D0995C8010E9470
:100D60008D061F910F9108950F931F938C010E9480
:100D70007506C8010E948D061F910F9108950F936B
:100D80001F938C01DC01ED91FC910190F081E02D2D
:100D90000995C8010E948D061F910F9108952F9209
:100DA0003F924F925F926F927F928F929F92AF92FB
:100DB000BF92CF92DF92EF92FF920F931F93DF9338
:100DC000CF93CDB7DEB7A0970FB6F894DEBF0FBEB6
:100DD000CDBF1C016A017B014115510561057105FB
:100DE00049F4DC01ED91FC910190F081E02D60E38C
:100DF000099554C0882499245401422E5524662410
:100E0000772401E010E00C0F1D1F080D191DC7010C
:100E1000B601A30192010E94D20AF80160830894EE
:100E2000811C911CA11CB11CC701B601A301920138
:100E30000E94D20AC901DA016C017D01C114D104FA
:100E4000E104F104F1F681E0E82EF12CEC0EFD1E38
:100E5000E80CF91C3E010894611C711CD501C40109
:100E60000197A109B1096C01C818D90814C0F6018D
:100E7000EE0DFF1D60816A3010F4605D01C0695C99
:100E8000D101ED91FC910190F081E02DC101099516
:100E90000894E108F1086E147F0449F7A0960FB694
:100EA000F894DEBF0FBECDBFCF91DF911F910F91A0
:100EB000FF90EF90DF90CF90BF90AF909F908F907A
:100EC0007F906F905F904F903F902F9008952AE011
:100ED0000E94CF0608950F931F938C010E9467070D
:100EE000C8010E948D061F910F910895AB0160E02B
:100EF00070E00E94670708950F931F938C01AB0168
:100F000060E070E00E946707C8010E948D061F9193
:100F10000F910895EF92FF920F931F93CF93DF935A
:100F2000EC017A018B0177FF0FC0E881F981019014
:100F3000F081E02D6DE2099510950095F094E09414
:100F4000E11CF11C011D111D2AE0B801A701CE0111
:100F50000E94CF06DF91CF911F910F91FF90EF90EC
:100F600008950F931F938C010E948A07C8010E9465
:100F70008D061F910F910895AB01662757FD60956F
:100F8000762F0E948A0708950F931F938C01AB015F
:100F9000662757FD6095762F0E948A07C8010E9438
:100FA0008D061F910F910895DC012115310541F443
:100FB000ED91FC910190F081E02D642F0995089549
:100FC0002A30310519F40E948A0708950E94CF063D
:100FD00008950F931F938C010E94D407C8010E94AB
:100FE0008D061F910F9108951F920F920FB60F92C9
:100FF00011242F938F939F93AF93BF938091BA0344
:101000009091BB03A091BC03B091BD038050904C64
:10101000AF4FBF4F8093BA039093BB03A093BC0321
:10102000B093BD0327C08091BA039091BB03A091F8
:10103000BC03B091BD0380589E43A040B040809354
:10104000BA039093BB03A093BC03B093BD038091FC
:10105000BE039091BF03A091C003B091C10301965C
:10106000A11DB11D8093BE039093BF03A093C00345
:10107000B093C1038091BA039091BB03A091BC03CC
:10108000B091BD0381589E43A040B04060F6BF912F
:10109000AF919F918F912F910F900FBE0F901F9046
:1010A00018958FB7F8942091BE033091BF034091FB
:1010B000C0035091C1038FBFB901CA010895EF92D7
:1010C000FF920F931F937B018C018FB7F89440918F
:1010D000BE035091BF036091C0037091C1038FBFE5
:1010E0002FB7F8948091BE039091BF03A091C003E5
:1010F000B091C1032FBF841B950BA60BB70B8E15A8
:101100009F05A007B10760F31F910F91FF90EF902B
:101110000895019759F0FC01EE0FFF1FEE0FFF1F1E
:1011200032978FB7F8943197F1F78FBF089578947D
:1011300084B5826084BD84B5816084BD85B58260DC
:1011400085BD85B5816085BDEEE6F0E0808181607A
:101150008083E1E8F0E0808182608083808181602B
:101160008083E0E8F0E0808181608083E1EBF0E063
:10117000808184608083E0EBF0E080818160808307
:10118000EAE7F0E0808184608083808182608083F0
:101190008081816080838081806880831092C1001B
:1011A00008958093910108958F7090919101929587
:1011B000990F990F907C982B90937C0080917A00E6
:1011C000806480937A0080917A0086FDFCCF209124
:1011D000780040917900942F80E030E0282B392B63
:1011E000C90108951F93CF93DF93182FEB0161E09E
:1011F0000E944609E12FF0E0E555FF4F84918330CE
:1012000051F480918000806880938000D0938900A1
:10121000C093880037C0843051F480918000806290
:1012200080938000D0938B00C0938A002BC08130C4
:1012300029F484B5806884BDC7BD24C0823029F4F8
:1012400084B5806284BDC8BD1DC0863041F48091E4
:10125000B00080688093B000C093B30013C08730A3
:1012600041F48091B00080628093B000C093B400DC
:1012700009C0C038D10514F460E001C061E0812FDD
:101280000E946409DF91CF911F910895282F30E0CB
:10129000C90189569F4FFC0194912D573F4FF90189
:1012A0008491882381F0E82FF0E0EC58FF4FE4911F
:1012B000F0E0662329F48081909589238083089546
:1012C0008081892B80830895482F50E0CA0185557D
:1012D0009F4FFC012491CA0189569F4FFC019491B4
:1012E0004D575F4FFA0134913323C1F1222331F17D
:1012F000233021F4809180008F7705C0243031F4B1
:10130000809180008F7D8093800018C0213019F477
:1013100084B58F7704C0223021F484B58F7D84BDDD
:101320000DC0263021F48091B0008F7705C02730A2
:1013300029F48091B0008F7D8093B000E32FF0E01E
:10134000E758FF4FE491F0E0662329F480819095FF
:101350008923808308958081892B80830895482F75
:1013600050E0CA0185559F4FFC012491CA0189565E
:101370009F4FFC0194914D575F4FFA0134913323F5
:1013800019F420E030E035C0222331F1233021F47C
:10139000809180008F7705C0243031F480918000E7
:1013A0008F7D8093800018C0213019F484B58F7729
:1013B00004C0223021F484B58F7D84BD0DC0263059
:1013C00021F48091B0008F7705C0273029F48091F7
:1013D000B0008F7D8093B000E32FF0E0E258FF4F24
:1013E000E491F0E0808120E030E0892311F021E0F9
:1013F00030E0C9010895EF92FF920F931F937B0194
:101400008C0122E030E040E050E00E94F40A205CD1
:101410003D4B404F5F4FCA01B901A80197010E949F
:10142000F40AC901DA010197A109B109292F3A2F5C
:101430004B2F552747FD5A950196A11DB11D2093AD
:10144000C50081508093C400E1ECF0E080818061B0
:1014500080838081886080838081806880831F9101
:101460000F91FF90EF900895982F8091C00085FF15
:10147000FCCF9093C60008958091C2039091C3035E
:1014800080589F4F2091C4033091C503821B930B5A
:1014900060E870E00E94BF0A08954091C403509133
:1014A000C5038091C2039091C3038417950719F473
:1014B0002FEF3FEF0FC0FA01EA53FC4F2081CA0122
:1014C000019660E870E00E94BF0A9093C503809384
:1014D000C40330E0C90108958091C4039091C5030D
:1014E0009093C3038093C20308951F920F920FB687
:1014F0000F9211242F933F934F935F936F937F939A
:101500008F939F93AF93BF93EF93FF934091C60048
:10151000E091C203F091C303CF01019660E870E04F
:101520000E94BF0A9C018091C4039091C5032817B3
:10153000390739F0EA53FC4F40833093C3032093BB
:10154000C203FF91EF91BF91AF919F918F917F91D6
:101550006F915F914F913F912F910F900FBE0F9020
:101560001F901895FB01DC0104C08D910590801936
:1015700021F441505040C8F7881B990B089597FB00
:10158000092E07260AD077FD04D049D006D00020C6
:101590001AF4709561957F4F0895F6F790958195AF
:1015A0009F4F0895A1E21A2EAA1BBB1BFD010DC07F
:1015B000AA1FBB1FEE1FFF1FA217B307E407F50703
:1015C00020F0A21BB30BE40BF50B661F771F881FDF
:1015D000991F1A9469F760957095809590959B0175
:1015E000AC01BD01CF01089597FB092E05260ED051
:1015F00057FD04D0D7DF0AD0001C38F45095409531
:10160000309521953F4F4F4F5F4F0895F6F79095D6
:101610008095709561957F4F8F4F9F4F0895AA1BBE
:10162000BB1B51E107C0AA1FBB1FA617B70710F0CD
:10163000A61BB70B881F991F5A95A9F780959095FF
:10164000BC01CD010895EE0FFF1F0590F491E02D30
:061650000994F894FFCF9D
:101656004572726F722057726974696E67005772AD
:10166600697474656E20736563746F723A20002026
:101676006F662000696E6974206661696C65642E08
:101686002E2E207265747279007546617420696E1B
:101696006974206661696C65642E0043616E74200E
:1016A60066696E642066696C6500646174612066B3
:1016B600696C652069733A20006279746573203D10
:1016C6002000736563746F72730000000000530599
:1016D6002C00454E4400446F6E6500000000005328
:0216E6000601FB
:00000001FF
